:020000040800F2
:1000000018040020C5010008DB020008D702000820
:10001000D90200080D020008B50700080000000022
:1000200000000000000000000000000019030008AC
:100030002702000800000000DD0200080504000897
:10004000DF010008DF010008DF010008DF01000810
:10005000DF010008DF010008DF010008DF01000800
:10006000DF010008DF010008DF010008DF010008F0
:10007000DF010008DF010008DF010008DF010008E0
:10008000DF010008DF010008DF010008DF010008D0
:10009000DF010008DF010008DF010008DF010008C0
:1000A000DF010008DF010008DF010008DF010008B0
:1000B000DF010008DF010008DF010008DF010008A0
:1000C000DF010008DF010008DF010008DF01000890
:1000D000DF010008DF010008DF010008DF01000880
:1000E000DF010008DF010008DF010008DF01000870
:1000F000DF010008DF010008DF010008DF01000860
:10010000DF010008DF010008DF010008DF0100084F
:10011000DF010008DF010008DF010008DF0100083F
:10012000DF010008DF010008DF010008DF0100082F
:10013000DF010008DF010008DF010008DF0100081F
:10014000DF010008DF010008DF010008DF0100080F
:10015000DF010008DF010008DF010008DF010008FF
:10016000DF010008DF010008DF010008DF010008EF
:10017000DF010008DF010008DF010008DF010008DF
:10018000DF010008DF010008DF010008DF010008CF
:10019000DF010008DF010008DF010008DF010008BF
:1001A000DF010008DF010008DF010008DFF810D0E0
:1001B00000F01AF800480047D5070008AFF30080A8
:1001C000180400200648804706480047FEE7FEE77F
:1001D000FEE7FEE7FEE7FEE7FEE7FEE7FEE7FEE7F7
:1001E00009040008AD010008064C074D06E0E06870
:1001F00040F0010394E8070098471034AC42F6D36E
:10020000FFF7D8FF1008000830080008FEE710B517
:1002100000F09AFA00F038F9FF22BDE810401146CC
:10022000104600F07BB8704701B502E00098401E10
:10023000009000980028F9D108BD2DE9F041002276
:1002400001274FF0030C07FA02F50B682B40AB4275
:100250002CD1066853000CFA03F4A64306600E790D
:10026000D0F800809E4046EA080606600E79012E0E
:1002700001D0022E12D18668A64386604E79D0F84E
:1002800008809E4046EA080686604668AE4346609F
:1002900045688E799640B6B235434560C568A5433A
:1002A000C560CC799C40C3681C43C460521C102AB2
:1002B000C9D3BDE8F08110B54B07DB0E9A40C908E1
:1002C00000EB8100016A0F249C40A1430162016A96
:1002D0001143016210BDFEE7FEE770477047000062
:1002E000054A002903D01168014311607047116865
:1002F000814311607047000030380240054A0029F0
:1003000003D0116801431160704711688143116087
:10031000704700004038024070470000034B1860EF
:10032000181D0160001D026070470000340C004081
:100330001CB50021019100912E4A106840F48030D4
:1003400010604FF4A043106800F400300090019852
:10035000401C0190009810B901989842F3D11068A0
:10036000800302D50120009000E000910098012850
:100370003FD120484030016841F0805101601E4962
:10038000086840F4404008601A4808300368036079
:10039000036843F400430360036843F4A05303601D
:1003A000041F164B2360136843F0807313601368B7
:1003B0009B01FCD50A6842F480320A604A68D20385
:1003C000FCD50A6842F400320A604A689203FCD500
:1003D0000B4A40F205711160016821F003010160D0
:1003E000016841F0020101600168C1F38101022945
:1003F000FAD11CBD0038024000700040195A400775
:10040000003C02407047000010B50F48016841F001
:10041000010101600C4A00210832116002680B4B97
:100420001A400260031D0A4A1A60026822F4802200
:10043000026005480C300160FFF77AFF05494FF074
:100440000060086010BD000000380240FFFFF6FEAB
:100450001030002408ED00E0002904D0018841F0AC
:10046000800101807047018821F080010180704780
:10047000002904D0018841F0010101807047018802
:1004800021F001010180704730B589B001210820B9
:10049000FFF734FFFF200790214822490068B0FB96
:1004A000F1F0C0EB00104FF0FF3101EB4000ADF870
:1004B00018000024ADF82040ADF81A401A4D06A9E6
:1004C000284600F003F96021ADF804100121ADF8D1
:1004D000061003940221ADF8101001A9284600F07F
:1004E00025F80821284600F055F801A9284600F013
:1004F00057F80821284600F097F801A9284600F08F
:100500009DF80821284600F0DBF801212846FFF776
:10051000A3FF01212846FFF7ABFF09B030BD000063
:100520000000002080841E00000C004030B5028CCA
:1005300022F001020284058C8388028B22F0700273
:1005400022F003020C88144325F002028D89154322
:100550004A882A430D4DA84202D00D4DA8420FD122
:1005600022F00805CA892A4322F004058A882A4312
:1005700023F4807323F400730D8A1D434B8A2B43AD
:100580008380048389684163028430BD0000014098
:1005900000040140028B22F008020A4302837047E4
:1005A00070B5028C22F010020284028C8388048BC6
:1005B00024F4E04424F440760D884FF6FF7404EAF6
:1005C0000525354322F020028E8904EA06161643DB
:1005D0004A8804EA02123243114EB04202D0114E50
:1005E000B04217D122F08002CE8904EA06161643E3
:1005F00026F040068A8804EA0212324323F480631C
:1006000023F400630E8A04EA86061E434B8A04EA3A
:10061000830333438380058389688163028470BDCB
:100620000000014000040140028B22F400624FF6FA
:10063000FF7303EA012111430183704770B5028CF7
:1006400022F480720284028C8388848B24F07004EC
:1006500024F003040D88254322F400728E894FF69E
:10066000FF7404EA062616434A8804EA022232434B
:10067000114EB04202D0114EB04217D122F40066A2
:10068000CA8904EA0222324322F480668A8804EA94
:100690000222324323F4805323F400530E8A04EAE7
:1006A00006161E434B8A04EA031333438380858373
:1006B0008968C163028470BD0000014000040140EC
:1006C000828B22F008020A438283704730B5028889
:1006D000164C174DA0420DD0A8420BD0B0F1804F60
:1006E00008D0144B984205D0134B984202D0134BBC
:1006F000984203D122F070034A881A43104B984263
:1007000006D0104B984203D022F440730A891A4352
:1007100002804A68C2620A880285A04201D0A842CB
:1007200001D1897A01860121818230BD000001401A
:10073000000401400004004000080040000C00409C
:1007400000100040001400401CB501218020FFF77C
:10075000C7FD174C02220A212046FFF7ACFD0222FA
:100760000B212046FFF7A7FD02220C212046FFF7B0
:10077000A2FD2115009102218DF8041000218DF8B1
:1007800006108DF8071003218DF8051069462046E4
:10079000FFF753FDE114009169462046FFF74DFD38
:1007A000A114009169462046FFF747FD1CBD0000DB
:1007B000001C0240FEE702E008C8121F08C1002A20
:1007C000FAD170477047002001E001C1121F002AD2
:1007D000FBD17047FFF71BFD0C4D00240022E0B257
:1007E0001146FFF79BFD2846FFF71EFD641CFF2CFA
:1007F000F4DDFF240022E0B21146FFF78FFD28460A
:10080000FFF712FD641E002CF4DAE6E7FFFF0F008D
:10081000300800080000002014000000B60700089F
:10082000440800081400002004040000C607000863
:100830000095BA0A00000000000000000102030455
:040840000607080996
:04000005080001AD41
:00000001FF
