:020000040800F2
:1000000008040020C5010008EF0200088D02000866
:10001000ED0200080D02000889060008000000003B
:10002000000000000000000000000000A90300081C
:100030000F020008000000006D03000881040008A2
:10004000DF010008DF010008DF010008DF01000810
:10005000DF010008DF010008DF010008DF01000800
:10006000DF010008DF010008DF010008DF010008F0
:10007000DF010008DF010008DF010008DF010008E0
:10008000DF010008DF010008DF010008DF010008D0
:10009000DF010008DF010008DF010008DF010008C0
:1000A000DF010008DF010008DF010008DF010008B0
:1000B000DF010008DF010008DF010008DF010008A0
:1000C000DF010008DF010008DF010008DF01000890
:1000D000DF010008DF010008DF010008DF01000880
:1000E000DF010008DF010008DF010008DF01000870
:1000F000DF010008DF010008DF010008DF01000860
:10010000DF010008DF010008DF010008DF0100084F
:10011000DF010008DF010008DF010008D504000846
:10012000DF010008DF010008DF010008DF0100082F
:10013000DF010008DF010008DF010008DF0100081F
:10014000DF010008DF010008DF010008DF0100080F
:10015000DF010008DF010008DF010008DF010008FF
:10016000DF010008DF010008DF010008DF010008EF
:10017000DF010008DF010008DF010008DF010008DF
:10018000DF010008DF010008DF010008DF010008CF
:10019000DF010008DF010008DF010008DF010008BF
:1001A000DF010008DF010008DF010008DFF810D0E0
:1001B00000F01AF800480047A9060008AFF30080D5
:1001C000080400200648804706480047FEE7FEE78F
:1001D000FEE7FEE7FEE7FEE7FEE7FEE7FEE7FEE7F7
:1001E00085040008AD010008064C074D06E0E068F4
:1001F00040F0010394E8070098471034AC42F6D36E
:10020000FFF7D8FFB4060008D4060008FEE77047E1
:100210002DE9F041002201274FF0030C07FA02F507
:100220000B682B40AB422CD1066853000CFA03F448
:10023000A64306600E79D0F800809E4046EA080684
:1002400006600E79012E01D0022E12D18668A643D7
:1002500086604E79D0F808809E4046EA080686609F
:100260004668AE43466045688E799640B6B23543DF
:100270004560C568A543C560CC799C40C3681C43F4
:10028000C460521C102AC9D3BDE8F081FEE700000B
:100290002DE9FC410121802000F06AF84FF48064D0
:1002A000009401208DF8040000218DF806108DF8CF
:1002B00007008DF805100C4F69463846FFF7A8FF78
:1002C0006600009669463846FFF7A2FFA500009534
:1002D00069463846FFF79CFF0348183004800680C3
:1002E0000580BDE8FC810000001C0240FEE770476D
:1002F00030B50F23C27801250178002A1FD0154A96
:10030000126802F4E062C2F5E062C2F30722C2F1B1
:100310000404D3404278A24084781C401443220154
:1003200001F1E02181F80024007800F01F018D40E8
:100330004009800000F1E020C0F8005130BD01F01C
:100340001F0085404809800000F1E020C0F880517E
:1003500030BD00000CED00E002490843024908608E
:10036000704700000000FA050CED00E07047000047
:10037000054A002903D011680143116070471168D4
:10038000814311607047000030380240054A00295F
:1003900003D01168014311607047116881431160F7
:1003A0007047000040380240704700001CB5002133
:1003B000019100912E4A106840F4803010604FF493
:1003C000A043106800F4003000900198401C019098
:1003D000009810B901989842F3D11068800302D5B3
:1003E0000120009000E00091009801283FD12048B2
:1003F0004030016841F0805101601E49086840F4B6
:10040000404008601A48083003680360036843F4FA
:1004100000430360036843F4A0530360041F164BBA
:100420002360136843F08073136013689B01FCD54D
:100430000A6842F480320A604A68D203FCD50A682E
:1004400042F400320A604A689203FCD50B4A40F23B
:1004500005711160016821F003010160016841F03C
:10046000020101600168C1F381010229FAD11CBDBA
:100470000038024000700040195A4007003C02401A
:100480007047000010B50F48016841F0010101609C
:100490000C4A00210832116002680B4B1A400260BE
:1004A000031D0A4A1A60026822F48022026005488D
:1004B0000C300160FFF77AFF05494FF000600860DB
:1004C00010BD000000380240FFFFF6FE103000248F
:1004D00008ED00E02DE9F041164D0121284600F01D
:1004E00041F8002824D0144E2815144A43003168DE
:1004F000840029B1971E012906D002290BD107E0FB
:1005000010801380148006E010803B80148002E08D
:10051000388013801480491C032291FBF2F002FB07
:10052000101030602846BDE8F041012100F00BB802
:10053000BDE8F08100140040000000201A1C0240B9
:10054000C94301827047C94301827047002904D022
:10055000018841F0010101807047018821F001010B
:100560000180704702460020138A0B4092890A409E
:10057000002B02D0002A00D001207047002A03D0AF
:1005800082890A438281704782898A4382817047C7
:100590003EB501212020FFF7F9FE4EF65F200190C5
:1005A00042F22730ADF80000094C6946204600F0C1
:1005B00011F801212046FFF7C3FF01221146204612
:1005C000FFF7DCFF01212046FFF7C0FF3EBD000022
:1005D0000014004030B50288164C174DA0420DD0D3
:1005E000A8420BD0B0F1804F08D0144B984205D0F0
:1005F000134B984202D0134B984203D122F0700360
:100600004A881A43104B984206D0104B984203D0A8
:1006100022F440730A891A4302804A68C2620A8837
:100620000285A04201D0A84201D1897A0186012128
:10063000818230BD00000140000401400004004000
:1006400000080040000C0040001000400014004072
:1006500010B500F004F8BDE81040FFF799BF08B5E9
:100660004FF4E060FFF778FE37208DF8000000209F
:100670008DF8010003208DF8020001208DF80300A1
:100680006846FFF735FE08BDFEE702E008C8121F06
:1006900008C1002AFAD170477047002001E001C16B
:1006A000121F002AFBD17047FFF7F2FDFFF7D0FFC2
:1006B000FEE70000D406000800000020040000004F
:1006C0008A060008D8060008040000200404000080
:0806D0009A060008000000007A
:04000005080001AD41
:00000001FF
