:020000040800F2
:1000000008040020C501000873030008B1020008BD
:10001000710300080D020008C10400080000000080
:100020000000000000000000000000009503000830
:100030000F02000800000000750300086D040008AE
:10004000DF010008DF010008DF010008DF01000810
:10005000DF010008DF010008DF010008DF01000800
:10006000DF010008DF010008DF010008DF010008F0
:10007000DF010008DF010008DF010008DF010008E0
:10008000DF010008DF010008DF010008DF010008D0
:10009000DF010008DF010008DF010008DF010008C0
:1000A000DF010008DF010008DF010008DF010008B0
:1000B000DF010008DF010008DF010008DF010008A0
:1000C000DF010008DF010008DF010008DF01000890
:1000D000DF010008DF010008DF010008DF01000880
:1000E000DF010008DF010008DF010008DF01000870
:1000F000DF010008DF010008DF010008DF01000860
:10010000DF010008DF010008DF010008DF0100084F
:10011000DF010008DF010008DF010008DF0100083F
:10012000DF010008DF010008DF010008DF0100082F
:10013000DF010008DF010008DF010008DF0100081F
:10014000DF010008DF010008DF010008DF0100080F
:10015000DF010008DF010008DF010008DF010008FF
:10016000DF010008DF010008DF010008DF010008EF
:10017000DF010008DF010008DF010008DF010008DF
:10018000DF010008DF010008DF010008DF010008CF
:10019000DF010008DF010008DF010008DF010008BF
:1001A000DF010008DF010008DF010008DFF810D0E0
:1001B00000F01AF800480047E1040008AFF300809F
:1001C000080400200648804706480047FEE7FEE78F
:1001D000FEE7FEE7FEE7FEE7FEE7FEE7FEE7FEE7F7
:1001E00071040008AD010008064C074D06E0E06808
:1001F00040F0010394E8070098471034AC42F6D36E
:10020000FFF7D8FF94050008B4050008FEE7704723
:100210004CF2503204E00021491C9142FCDB401EAC
:100220000028F8DC70472DE9F041002201274FF04B
:10023000030C07FA02F50B682B40AB422CD1066881
:1002400053000CFA03F4A64306600E79D0F8008040
:100250009E4046EA080606600E79012E01D0022E65
:1002600012D18668A64386604E79D0F808809E40F9
:1002700046EA080686604668AE43466045688E7961
:100280009640B6B235434560C568A543C560CC7994
:100290009C40C3681C43C460521C102AC9D3BDE8EB
:1002A000F0810246002012690A4200D00120704706
:1002B000FEE700001CB50121052000F05DF80120DB
:1002C000009000208DF804008DF80700694605486D
:1002D000FFF7A9FF4FF40050009069460248FFF76E
:1002E000A2FF1CBD000002400008024070B5044699
:1002F0000D4629462046FFF7D4FF012801D00020F3
:1003000070BD29462046FFF7CCFF0128F9D0012017
:1003100070BD00002DE9FC410121802000F02CF887
:100320004FF48064009401208DF8040000218DF8C2
:1003300006108DF807008DF805100C4F69463846F9
:10034000FFF771FF6600009669463846FFF76BFFBE
:10035000A500009569463846FFF765FF0348183049
:10036000048006800580BDE8FC810000001C02407E
:10037000FEE7704770470000054A002903D0116866
:10038000014311607047116881431160704700009C
:1003900030380240704700001CB5002101910091E7
:1003A0002E4A106840F4803010604FF4A04310686B
:1003B00000F4003000900198401C0190009810B9A2
:1003C00001989842F3D11068800302D50120009073
:1003D00000E00091009801283FD12048403001689A
:1003E00041F0805101601E49086840F440400860B7
:1003F0001A48083003680360036843F4004303604D
:10040000036843F4A0530360041F164B2360136872
:1004100043F08073136013689B01FCD50A6842F4B3
:1004200080320A604A68D203FCD50A6842F400327E
:100430000A604A689203FCD50B4A40F205711160CC
:10044000016821F003010160016841F002010160CF
:100450000168C1F381010229FAD11CBD00380240B4
:1004600000700040195A4007003C024070470000ED
:1004700010B50F48016841F0010101600C4A0021EC
:100480000832116002680B4B1A400260031D0A4AD1
:100490001A60026822F48022026005480C30016074
:1004A000FFF77AFF05494FF00060086010BD0000BB
:1004B00000380240FFFFF6FE1030002408ED00E097
:1004C000FEE702E008C8121F08C1002AFAD17047EF
:1004D0007047002001E001C1121F002AFBD17047C4
:1004E000FFF718FFFFF7E6FE274FDFF8A0A0284D23
:1004F0004FF48066A7F1020840F2DC59287850B129
:1005000001215046FFF7F2FE0128F7D12878A8B361
:1005100000202870F2E73E804FF48050A8F80000D9
:10052000002401215046FFF7E1FE012803D128787D
:10053000B8B1002028700120FFF76AFE641C4C450A
:10054000EFDD28780028D9D1A8F800604FF40060CA
:100550003880002401215046FFF7C8FE012802D050
:1005600005E00120E6E7287848B100202870012046
:10057000FFF74EFE641C4C45ECDDBFE701E00120B7
:10058000F4E70120C5E700001A1C02400000024009
:1005900000000020B4050008000000200400000056
:1005A000C2040008B805000804000020040400008C
:0805B000D20400080000000065
:04000005080001AD41
:00000001FF
