:020000040800F2
:1000000000040020C5010008CD010008CF01000850
:10001000D1010008D3010008D5010008000000004C
:10002000000000000000000000000000D7010008F0
:10003000D901000800000000DB010008DD01000814
:10004000DF010008DF010008DF010008DF01000810
:10005000DF010008DF010008DF010008DF01000800
:10006000DF010008DF010008DF010008DF010008F0
:10007000DF010008DF010008DF010008DF010008E0
:10008000DF010008DF010008DF010008DF010008D0
:10009000DF010008DF010008DF010008DF010008C0
:1000A000DF010008DF010008DF010008DF010008B0
:1000B000DF010008DF010008DF010008DF010008A0
:1000C000DF010008DF010008DF010008DF01000890
:1000D000DF010008DF010008DF010008DF01000880
:1000E000DF010008DF010008DF010008DF01000870
:1000F000DF010008DF010008DF010008DF01000860
:10010000DF010008DF010008DF010008DF0100084F
:10011000DF010008DF010008DF010008DF0100083F
:10012000DF010008DF010008DF010008DF0100082F
:10013000DF010008DF010008DF010008DF0100081F
:10014000DF010008DF010008DF010008DF0100080F
:10015000DF010008DF010008DF010008DF010008FF
:10016000DF010008DF010008DF010008DF010008EF
:10017000DF010008DF010008DF010008DF010008DF
:10018000DF010008DF010008DF010008DF010008CF
:10019000DF010008DF010008DF010008DF010008BF
:1001A000DF010008DF010008DF010008DFF810D0E0
:1001B00000F01AF800480047D5020008AFF30080AD
:1001C000000400200648804706480047FEE7FEE797
:1001D000FEE7FEE7FEE7FEE7FEE7FEE7FEE7FEE7F7
:1001E00025020008AD010008064C074D06E0E06856
:1001F00040F0010394E8070098471034AC42F6D36E
:10020000FFF7D8FF700300088003000807E0002113
:1002100000E0491C4CF250329142FADB401E0028AB
:10022000F5DC7047704702E008C8121F08C1002AB9
:10023000FAD170477047002001E001C1121F002A67
:10024000FBD1704722490968430003229A40914339
:100250001F4A116011460968430001229A40114368
:100260001B4A1160111D0968012282409143184AFE
:10027000121D116011460968002282401143144A80
:10028000121D1160111D0968430003229A40914319
:100290000F4A0832116011460968430000229A4053
:1002A00011430B4A08321160111D096843000322F3
:1002B0009A409143064A0C32116011460968430086
:1002C00001229A401143024A0C321160704700002B
:1002D000001C02402448006840F080002249086069
:1002E0000A240B250C2600BF2046FFF7ABFF304643
:1002F000FFF7A8FF2846FFF7A5FF34E01B4800687A
:100300004FF48031A1400843184908606420FFF78A
:100310007DFF164800680121A14008431349086089
:10032000084600684FF48031A94008430F4908602F
:100330006420FFF76BFF0D4801680120A8400143CE
:100340000A48016000684FF48031B1400843074912
:1003500008606420FFF75AFF044800680121B1409B
:10036000084302490860C9E730380240181C0240BF
:10037000800300080000002000040000360200088E
:04000005080001C529
:00000001FF
