:020000040800F2
:1000000018040020C5010008E9020008E502000804
:10001000E70200080D0200083F0900080000000088
:10002000000000000000000000000000A503000820
:10003000270200080000000069030008AD04000862
:10004000DF010008DF010008DF010008DF01000810
:10005000DF010008DF010008DF010008DF01000800
:10006000DF010008DF010008DF010008DF010008F0
:10007000DF010008DF010008DF010008DF010008E0
:10008000DF010008DF010008DF010008DF010008D0
:10009000DF010008DF010008DF010008DF010008C0
:1000A000DF010008DF010008DF010008DF010008B0
:1000B000DF010008DF010008DF010008DF010008A0
:1000C000DF010008DF010008DF010008DF01000890
:1000D000DF010008DF010008DF010008DF01000880
:1000E000DF010008DF010008DF010008DF01000870
:1000F000DF010008DF010008DF010008DF01000860
:10010000DF010008DF010008DF010008DF0100084F
:10011000DF010008DF010008DF0100080105000819
:10012000DF010008DF010008DF010008DF0100082F
:10013000DF010008DF010008DF010008DF0100081F
:10014000DF010008DF010008DF010008DF0100080F
:10015000DF010008DF010008DF010008DF010008FF
:10016000DF010008DF010008DF010008DF010008EF
:10017000DF010008DF010008DF010008DF010008DF
:10018000DF010008DF010008DF010008DF010008CF
:10019000DF010008DF010008DF010008DF010008BF
:1001A000DF010008DF010008DF010008DFF810D0E0
:1001B00000F01AF8004800475F090008AFF300801C
:1001C000180400200648804706480047FEE7FEE77F
:1001D000FEE7FEE7FEE7FEE7FEE7FEE7FEE7FEE7F7
:1001E000B1040008AD010008064C074D06E0E068C8
:1001F00040F0010394E8070098471034AC42F6D36E
:10020000FFF7D8FF8C090008AC090008FEE710B51D
:1002100000F04AFB00F0C2F9FF22BDE81040114691
:10022000104600F0C1B8704710B5054C0020207092
:100230000121044800F090F920780028FCD010BD7E
:1002400014000020001400402DE9F0410022012795
:100250004FF0030C07FA02F50B682B40AB422CD190
:10026000066853000CFA03F4A64306600E79D0F832
:1002700000809E4046EA080606600E79012E01D0F5
:10028000022E12D18668A64386604E79D0F8088087
:100290009E4046EA080686604668AE43466045686A
:1002A0008E799640B6B235434560C568A543C560B2
:1002B000CC799C40C3681C43C460521C102AC9D32B
:1002C000BDE8F08110B54B07DB0E9A40C90800EB82
:1002D0008100016A0F249C40A1430162016A11431D
:1002E000016210BDFEE7FEE77047000030B50F2346
:1002F000C27801250178002A1FD0154A126802F43D
:10030000E062C2F5E062C2F30722C2F10404D34006
:100310004278A24084781C401443220101F1E0217C
:1003200081F80024007800F01F018D404009800012
:1003300000F1E020C0F8005130BD01F01F00854001
:100340004809800000F1E020C0F8805130BD000075
:100350000CED00E0024908430249086070470000C4
:100360000000FA050CED00E070470000054A002986
:1003700003D0116801431160704711688143116017
:100380007047000030380240054A002903D0116848
:10039000014311607047116881431160704700008C
:1003A0004038024070470000034B1860181D016080
:1003B000001D026070470000340C0040C0F307418C
:1003C000C0F30722C0B2034B1960191D0A60091D52
:1003D00008607047340C00401CB500210191009169
:1003E0002E4A106840F4803010604FF4A04310682B
:1003F00000F4003000900198401C0190009810B962
:1004000001989842F3D11068800302D50120009032
:1004100000E00091009801283FD120484030016859
:1004200041F0805101601E49086840F44040086076
:100430001A48083003680360036843F4004303600C
:10044000036843F4A0530360041F164B2360136832
:1004500043F08073136013689B01FCD50A6842F473
:1004600080320A604A68D203FCD50A6842F400323E
:100470000A604A689203FCD50B4A40F2057111608C
:10048000016821F003010160016841F0020101608F
:100490000168C1F381010229FAD11CBD0038024074
:1004A00000700040195A4007003C024070470000AD
:1004B00010B50F48016841F0010101600C4A0021AC
:1004C0000832116002680B4B1A400260031D0A4A91
:1004D0001A60026822F48022026005480C30016034
:1004E000FFF77AFF05494FF00060086010BD00007B
:1004F00000380240FFFFF6FE1030002408ED00E057
:1005000010B50A4C0121204600F032F800280CD02A
:100510000121204600F01DF8054A012111702046F6
:10052000BDE81040002100F017B810BD00140040D5
:1005300014000020002904D0018841F080010180CE
:100540007047018821F0800101807047C943018212
:100550007047C94301827047002904D0018841F0E7
:10056000010101807047018821F00101018070477D
:1005700002460020138A0B4092890A40002B02D0C9
:10058000002A00D001207047002A03D082890A4344
:100590008281704782898A438281704730B589B0F1
:1005A00001210820FFF7F0FEFF2007902148224993
:1005B0000068B0FBF1F0C0EB00104FF0FF3101EB31
:1005C0004000ADF818000024ADF82040ADF81A4006
:1005D0001A4D06A9284600F021F96021ADF8041053
:1005E0000121ADF8061003940221ADF8101001A905
:1005F000284600F043F80821284600F073F801A9C6
:10060000284600F075F80821284600F0B5F801A941
:10061000284600F0BBF80821284600F0F9F801212F
:100620002846FFF787FF01212846FFF795FF09B00D
:1006300030BD00000000002080841E00000C00403F
:100640003EB501212020FFF79FFE42F20F7001907E
:1006500042F22730ADF80000074C6946204600F012
:10066000DDF801212046FFF771FF012211462046E7
:10067000FFF78AFF3EBD00000014004030B5028C39
:1006800022F001020284058C8388028B22F0700222
:1006900022F003020C88144325F002028D891543D1
:1006A0004A882A430D4DA84202D00D4DA8420FD1D1
:1006B00022F00805CA892A4322F004058A882A43C1
:1006C00023F4807323F400730D8A1D434B8A2B435C
:1006D0008380048389684163028430BD0000014047
:1006E00000040140028B22F008020A430283704793
:1006F00070B5028C22F010020284028C8388048B75
:1007000024F4E04424F440760D884FF6FF7404EAA4
:100710000525354322F020028E8904EA0616164389
:100720004A8804EA02123243114EB04202D0114EFE
:10073000B04217D122F08002CE8904EA0616164391
:1007400026F040068A8804EA0212324323F48063CA
:1007500023F400630E8A04EA86061E434B8A04EAE9
:10076000830333438380058389688163028470BD7A
:100770000000014000040140028B22F400624FF6A9
:10078000FF7303EA012111430183704770B5028CA6
:1007900022F480720284028C8388848B24F070049B
:1007A00024F003040D88254322F400728E894FF64D
:1007B000FF7404EA062616434A8804EA02223243FA
:1007C000114EB04202D0114EB04217D122F4006651
:1007D000CA8904EA0222324322F480668A8804EA43
:1007E0000222324323F4805323F400530E8A04EA96
:1007F00006161E434B8A04EA031333438380858322
:100800008968C163028470BD00000140000401409A
:10081000828B22F008020A438283704730B5028837
:10082000164C174DA0420DD0A8420BD0B0F1804F0E
:1008300008D0144B984205D0134B984202D0134B6A
:10084000984203D122F070034A881A43104B984211
:1008500006D0104B984203D022F440730A891A4301
:1008600002804A68C2620A880285A04201D0A8427A
:1008700001D1897A01860121818230BD00000140C9
:10088000000401400004004000080040000C00404B
:10089000001000400014004010B500F03BF8BDE827
:1008A0001040FFF7CDBE00001CB501218020FFF7EE
:1008B0005DFD174C02220A212046FFF703FD0222AC
:1008C0000B212046FFF7FEFC02220C212046FFF7F9
:1008D000F9FC2115009102218DF8041000218DF8FA
:1008E00006108DF8071003218DF805106946204683
:1008F000FFF7AAFCE114009169462046FFF7A4FC2B
:10090000A114009169462046FFF79EFC1CBD000023
:10091000001C024008B54FF4E060FFF71BFD3720D4
:100920008DF8000000208DF8010003208DF80200F2
:1009300001208DF803006846FFF7D8FC08BDFEE7EC
:1009400002E008C8121F08C1002AFAD17047704798
:10095000002001E001C1121F002AFBD17047FFF700
:1009600056FCFFF799FF4FF47F0425122046FFF74E
:1009700025FDFFF759FC2846FFF720FDFFF754FC43
:10098000FF20FFF71BFDFFF74FFCEFE7AC09000866
:10099000000000201800000040090008C4090008F9
:1009A0001800002000040000500900080095BA0A51
:1009B000000000000000000001020304060708090F
:0409C0000000000033
:04000005080001AD41
:00000001FF
