:020000040800F2
:1000000000040020C5010008FF020008AF0200083C
:10001000FD0200080D0200084D0400080000000069
:1000200000000000000000000000000021030008A4
:100030000F0200080000000001030008F903000897
:10004000DF010008DF010008DF010008DF01000810
:10005000DF010008DF010008DF010008DF01000800
:10006000DF010008DF010008DF010008DF010008F0
:10007000DF010008DF010008DF010008DF010008E0
:10008000DF010008DF010008DF010008DF010008D0
:10009000DF010008DF010008DF010008DF010008C0
:1000A000DF010008DF010008DF010008DF010008B0
:1000B000DF010008DF010008DF010008DF010008A0
:1000C000DF010008DF010008DF010008DF01000890
:1000D000DF010008DF010008DF010008DF01000880
:1000E000DF010008DF010008DF010008DF01000870
:1000F000DF010008DF010008DF010008DF01000860
:10010000DF010008DF010008DF010008DF0100084F
:10011000DF010008DF010008DF010008DF0100083F
:10012000DF010008DF010008DF010008DF0100082F
:10013000DF010008DF010008DF010008DF0100081F
:10014000DF010008DF010008DF010008DF0100080F
:10015000DF010008DF010008DF010008DF010008FF
:10016000DF010008DF010008DF010008DF010008EF
:10017000DF010008DF010008DF010008DF010008DF
:10018000DF010008DF010008DF010008DF010008CF
:10019000DF010008DF010008DF010008DF010008BF
:1001A000DF010008DF010008DF010008DFF810D0E0
:1001B00000F01AF8004800476D040008AFF3008013
:1001C000000400200648804706480047FEE7FEE797
:1001D000FEE7FEE7FEE7FEE7FEE7FEE7FEE7FEE7F7
:1001E000FD030008AD010008064C074D06E0E0687D
:1001F00040F0010394E8070098471034AC42F6D36E
:10020000FFF7D8FFA8040008B8040008FEE770470D
:1002100001B5009800280BD04CF250310020401C52
:100220008842FCDB0098401E009000980028F5D121
:1002300008BD2DE9F041002201274FF0030C07FA19
:1002400002F50B682B40AB422CD1066853000CFA28
:1002500003F4A64306600E79D0F800809E4046EA7B
:10026000080606600E79012E01D0022E12D1866892
:10027000A64386604E79D0F808809E4046EA08067C
:1002800086604668AE43466045688E799640B6B251
:1002900035434560C568A543C560CC799C40C368BB
:1002A0001C43C460521C102AC9D3BDE8F081FEE78C
:1002B0001CB50121802000F025F84FF480600090EB
:1002C00001208DF8040000218DF806108DF807003C
:1002D0008DF80510084C69462046FFF7AAFFE11487
:1002E000009169462046FFF7A4FFA11400916946DA
:1002F0002046FFF79EFF1CBD001C0240FEE7704732
:1003000070470000054A002903D0116801431160BD
:100310007047116881431160704700003038024017
:10032000704700001CB50021019100912E4A106811
:1003300040F4803010604FF4A043106800F40030A7
:1003400000900198401C0190009810B901989842C3
:10035000F3D11068800302D50120009000E00091E5
:10036000009801283FD120484030016841F0805179
:1003700001601E49086840F4404008601A4808308F
:1003800003680360036843F400430360036843F4B5
:10039000A0530360041F164B2360136843F080735F
:1003A000136013689B01FCD50A6842F480320A602E
:1003B0004A68D203FCD50A6842F400320A604A68EF
:1003C0009203FCD50B4A40F205711160016821F0DF
:1003D00003010160016841F0020101600168C1F39D
:1003E00081010229FAD11CBD003802400070004092
:1003F000195A4007003C02407047000010B50F48F2
:10040000016841F0010101600C4A002108321160CD
:1004100002680B4B1A400260031D0A4A1A60026808
:1004200022F48022026005480C300160FFF77AFF59
:1004300005494FF00060086010BD00000038024020
:10044000FFFFF6FE1030002408ED00E0FEE702E0BA
:1004500008C8121F08C1002AFAD17047704700204F
:1004600001E001C1121F002AFBD17047FFF720FFF6
:100470000C4D4FF480646600AA1E97142C801680E1
:100480001780FF20FFF7C4FE2E8014801780FF2006
:10049000FFF7BEFE2F8016801480FF20FFF7B8FE06
:1004A000ECE700001A1C0240B8040008000000201D
:0804B000000400005E040008D6
:04000005080001AD41
:00000001FF
