:020000040800F2
:1000000018040020C50100083B030008D9020008BD
:100010003903000839020008110700080000000039
:100020000000000000000000000000001D040008A7
:100030003B020008000000003D030008C90500085D
:10004000DF010008DF010008DF010008DF01000810
:10005000DF010008DF010008DF010008DF01000800
:10006000DF010008DF010008DF010008DF010008F0
:10007000DF010008DF010008DF010008DF010008E0
:10008000DF010008DF010008DF010008DF010008D0
:10009000DF010008DF010008DF010008DF010008C0
:1000A000DF010008DF010008DF010008DF010008B0
:1000B000DF010008DF010008DF010008DF010008A0
:1000C000DF010008DF010008DF010008DF01000890
:1000D000DF010008DF010008DF010008DF01000880
:1000E000DF010008DF010008DF010008DF01000870
:1000F000DF010008DF010008DF010008DF01000860
:10010000DF010008DF010008DF010008DF0100084F
:10011000DF010008DF010008DF010008DF0100083F
:10012000DF010008DF010008DF010008DF0100082F
:10013000DF010008DF010008DF010008DF0100081F
:10014000DF010008DF010008DF010008DF0100080F
:10015000DF010008DF010008DF010008DF010008FF
:10016000DF010008DF010008DF010008DF010008EF
:10017000DF010008DF010008DF010008DF010008DF
:10018000DF010008DF010008DF010008DF010008CF
:10019000DF010008DF010008DF010008DF010008BF
:1001A000DF010008DF010008DF010008DFF810D0E0
:1001B00000F030F800480047F1080008AFF3008075
:1001C000180400200648804706480047FEE7FEE77F
:1001D000FEE7FEE7FEE7FEE7FEE7FEE7FEE7FEE7F7
:1001E000CD050008AD01000830B50B4601460020E2
:1001F0002022012409E021FA02F59D4205D303FAE9
:1002000002F5491B04FA02F52844151EA2F1010269
:10021000F1DC30BD064C074D06E0E06840F001031C
:1002200094E8070098471034AC42F6D3FFF7C2FFBA
:10023000E0090008000A0008FEE770472DE9F041D8
:10024000002201274FF0030C07FA02F50B682B4040
:10025000AB422CD1066853000CFA03F4A6430660A7
:100260000E79D0F800809E4046EA080606600E79B6
:10027000012E01D0022E12D18668A64386604E79E7
:10028000D0F808809E4046EA080686604668AE437D
:10029000466045688E799640B6B235434560C5687C
:1002A000A543C560CC799C40C3681C43C460521C04
:1002B000102AC9D3BDE8F08110B54B07DB0E9A4078
:1002C000C90800EB8100016A0F249C40A143016230
:1002D000016A1143016210BDFEE700002DE9FC41F7
:1002E0000121802000F02CF84FF48064009401205C
:1002F0008DF8040000218DF806108DF807008DF8A8
:1003000005100C4F69463846FFF798FF66000096C7
:1003100069463846FFF792FFA500009569463846C2
:10032000FFF78CFF03481830048006800580BDE885
:10033000FC810000001C0240FEE77047704700008F
:10034000054A002903D01168014311607047116804
:10035000814311607047000030380240054A00298F
:1003600003D0116801431160704711688143116027
:10037000704700004438024070B5244B196801F002
:100380000C01234C00291ED0224E04291DD008291F
:100390001DD00460196801F0F00109091E4A545C7F
:1003A0000168E14041601C6804F4E054A40A145D53
:1003B00021FA04F484601B6803F460435B0BD25C95
:1003C000D140C16070BD0460E4E70660E2E70F4A17
:1003D000121F1168C1F38055116801F03F0135B15A
:1003E000B6FBF1F11468C4F38814614305E0B4FB73
:1003F000F1F11468C4F3881461431268C2F3014236
:10040000521C5200B1FBF2F10160C3E70838024010
:100410000024F40040787D010000002070470000B7
:100420001CB50021019100912E4A106840F48030E3
:1004300010604FF4A043106800F400300090019861
:10044000401C0190009810B901989842F3D11068AF
:10045000800302D50120009000E00091009801285F
:100460003FD120484030016841F0805101601E4971
:10047000086840F4404008601A4808300368036088
:10048000036843F400430360036843F4A05303602C
:10049000041F164B2360136843F0807313601368C6
:1004A0009B01FCD50A6842F480320A604A68D20394
:1004B000FCD50A6842F400320A604A689203FCD50F
:1004C0000B4A40F205711160016821F003010160DF
:1004D000016841F0020101600168C1F38101022954
:1004E000FAD11CBD0038024000700040195A400784
:1004F000003C024010B509A000F00CF94FF4E131C6
:1005000012A000F007F919A000F004F923A000F0F0
:1005100001F9BDE8104028A000F0FCB80D0A20D574
:10052000E2CAC7D2BBB8F6CDA8B9FDB4AEBFDACD2A
:10053000A8D0C5D6B8C1EEBFD8D6C6524742B2CAB7
:10054000B5C6CAB5D1E9200A00000000CAB9D3C3B4
:100550002055534152543120B2CECAFDCEAA202597
:100560006420382D4E2D31200A000000BFAAB7A20A
:10057000B0E5BDD3B5BDD6B8C1EEBAF3BFD8D6C6C7
:10058000524742B2CAB5C6D1D5C9ABA3ACD6B8C1E1
:10059000EEB6D4D3A6C8E7CFC2200A00D6B8C1EEC3
:1005A00020202D2D2D2D2D2D2D20B2CAB5C6D1D513
:1005B000C9AB200A0000000031202D2D2D2D2D2D3E
:1005C00020BAEC200A0000007047000010B50F4868
:1005D000016841F0010101600C4A002108321160FC
:1005E00002680B4B1A400260031D0A4A1A60026837
:1005F00022F48022026005480C300160FFF710FFF2
:1006000005494FF00060086010BD0000003802404E
:10061000FFFFF6FE1030002408ED00E0002904D0B2
:10062000818941F4005181817047818921F4005111
:10063000818170470246002012880A4200D00120C2
:10064000704700007FB504460D46208A20F44051D3
:10065000E88808432082A08941F20C618843A98878
:100660002A8911436A8902431143A181A08A20F497
:100670004071A8890843A0826846FFF77DFE1E48A6
:10068000844202D01D48844201D1039800E00298C0
:10069000A189090408D500EBC00101EB001029680D
:1006A0004900B0FBF1F007E000EBC00101EB0010E6
:1006B00029688900B0FBF1F06422B0FBF2F1090176
:1006C0000B096FF018056B4300EB8300A3891D0431
:1006D0004FF0320307D503EBC000B0FBF2F000F09F
:1006E0000700084306E003EB0010B0FBF2F000F057
:1006F0000F00084320817FBD00100140001401401D
:100700008088C0F308007047C1F3080181807047FA
:10071000FEE700000FB4054B10B503A9044A029888
:1007200000F018F810BC5DF814FB0000C9080008C0
:100730001400002002E008C8121F08C1002AFAD1E4
:1007400070477047002001E001C1121F002AFBD151
:10075000704700002DE9FF4F89B09B4604460025F5
:1007600006E025280BD05A460B999047641C6D1C57
:1007700020780028F5D10DB02846BDE8F08F00277D
:10078000B8460122474900E0074314F8013F203BE7
:1007900002FA03F00842F7D120782E2819D114F874
:1007A000010F47F004072A280ED06FF02F0220789F
:1007B000A0F1300109290CD808EB880102EB4101B6
:1007C00000EB0108641CF2E70A98641C50F8048BE3
:1007D0000A9020780028CED0642808D0692806D056
:1007E00075281ED05A460B9990476D1C58E00A99FF
:1007F0004FF00A0901C90A91002802DA40422D216E
:1008000002E0390504D52B218DF82010012103E0E9
:10081000F90704D02021F7E78A4608AE0DE0002151
:10082000FAE70A994FF00A0901C90A91F7E7494620
:10083000FFF7DAFC303106F8011D0028F7D1ADEBE7
:10084000060000F12009780701D44FF00108C845DF
:1008500002DDA8EB090000E000208046002706E04A
:1008600008A85A46C05D0B9990476D1C7F1C5745E0
:10087000F6DB04E030205A460B9990476D1CB8F126
:100880000001A8F10108F5DC05E016F8010B5A4655
:100890000B9990476D1CB9F10001A9F10109F4DC35
:1008A000641C65E70928010010B5064C202120468C
:1008B000FFF7C0FE0028F9D02046BDE81040FFF742
:1008C0001FBF00000010014070B50446064DE1B2A4
:1008D0002846FFF719FF80212846FFF7ABFE0028C6
:1008E000F9D0204670BD000000100140FFF7DCBFCA
:1008F000FFF7F4FC00F02AF8FFF7FCFDDFF830808A
:100900004FF480656E00A8F10204A7140948FFF7B0
:10091000EDFFC0B2312806D025802680278006A0B2
:10092000FFF7F8FEF2E7A8F8005026802780EDE7F1
:100930001A1C024010000020CAE4C8EBB4EDCEF34C
:10094000A3ACC7EBD6D8CAE40A00000030B587B024
:1009500001210846FFF7F4FC01211020FFF7FEFCFF
:1009600002208DF8190000248DF81A4001218DF81D
:100970001B108DF8180000020590174D05A9284698
:10098000FFF75CFC2915059105A92846FFF756FCE1
:1009900007220A212846FFF78FFC07220921284653
:1009A000FFF78AFC4FF4E1300190ADF80840ADF854
:1009B0000A40ADF80C40ADF810400C20ADF80E0028
:1009C000064C01A92046FFF73DFE01212046FFF716
:1009D00025FE07B030BD00000000024000100140BD
:1009E000000A00080000002018000000340700087A
:1009F000180A00081800002000040000440700083E
:100A000000000000010203040102030406070809B4
:080A10000000000000000000DE
:04000005080001AD41
:00000001FF
