:020000040800F2
:10000000C0050020C50100086F0800080D080008A1
:100010006D0800084B070008ED0B00080000000009
:10002000000000000000000000000000510900086E
:100030004D0700080000000071080008A50A00082C
:10004000DF010008DF010008DF010008DF01000810
:10005000DF010008DF010008DF010008DF01000800
:10006000DF010008DF010008DF010008DF010008F0
:10007000DF010008DF010008DF010008DF010008E0
:10008000DF010008DF010008DF010008DF010008D0
:10009000DF010008DF010008DF010008DF010008C0
:1000A000DF010008DF010008DF010008DF010008B0
:1000B000DF010008DF010008DF010008DF010008A0
:1000C000DF010008DF010008DF010008DF01000890
:1000D000DF010008DF010008DF010008DF01000880
:1000E000DF010008DF010008DF010008DF01000870
:1000F000DF010008DF010008DF010008DF01000860
:10010000DF010008DF010008DF010008DF0100084F
:10011000DF010008DF010008DF010008DF0100083F
:10012000DF010008DF010008DF010008DF0100082F
:10013000DF010008DF010008DF010008DF0100081F
:10014000DF010008DF010008DF010008DF0100080F
:10015000DF010008DF010008DF010008DF010008FF
:10016000DF010008DF010008DF010008DF010008EF
:10017000DF010008DF010008DF010008DF010008DF
:10018000DF010008DF010008DF010008DF010008CF
:10019000DF010008DF010008DF010008DF010008BF
:1001A000DF010008DF010008DF010008DFF810D0E0
:1001B00000F0B2F800480047490D0008AFF3008096
:1001C000C00500200648804706480047FEE7FEE7D6
:1001D000FEE7FEE7FEE7FEE7FEE7FEE7FEE7FEE7F7
:1001E000A90A0008AD010008A0F14101192900D8B1
:1001F00020307047421C10F8011B0029FBD1801AE7
:10020000704700000FB400B589B00BA800906A4693
:1002100003480A9900F076F809B05DF814FB000075
:10022000B00100202DE9FF5FD2E901A74FF00008DF
:10023000916999461446DDF838B0464601988847DA
:10024000054659EA0B0005D009E0A169761C019822
:1002500088470546216A284688470028F5D1681C4A
:1002600003D05FEACA7005D015E04FF0FF3004B04C
:10027000BDE8F09F2068011D2160D0F800800AE0F1
:100280005FEACA7001D108F8015BA169761C7F1E84
:10029000019888470546002F1ADD681C18D0B9F16F
:1002A000000F0DD0E81705EBD060421120F01F00C1
:1002B00059F822102A1A012090400142E0D107E0AB
:1002C000BBF1000FDCD1216A284688470028D7D02F
:1002D000E16901988847BBF1000F07D1002E05DDC9
:1002E0005FEACA7002D1002188F80010A068B84205
:1002F00003DDBBF1000F03D017B16FF00100B6E7CB
:100300003046B4E7024B9361024BD36100F032B840
:10031000050D000859030008064C074D06E0E0688B
:1003200040F0010394E8070098471034AC42F6D33C
:10033000FFF740FF080F0008280F0008094910B513
:1003400008784C1C18B1401E0870205C10BD0021BC
:100350000720ABBE207010BD02490878421C0A700D
:1003600070470000B8010020026811441378016052
:1003700018467047D1600449516104491162002157
:100380001161114600F00AB86903000891030008E2
:10039000C0B24FF4F05100F099B900002DE9F34FCD
:1003A0008BB04FF0000801F10C000C464FF0010B30
:1003B00046460DF1080A01906269012101989047B3
:1003C000051E2DD0252D2CD0216A8847C0B1626929
:1003D000012101989047216A88470028F7D1411EE2
:1003E00062690198904700E0761CA1690B988847E4
:1003F000216A88470028F7D1E1690B988847DBE735
:10040000A1690B9888470746A84201D1761CD3E71B
:10041000E1690B9888477F1C02D1B8F1000F6FD0BB
:1004200047E1002762693D463946019890472A28EE
:1004300004D162690121019890470125DFF8889273
:100440006269012101989047A0F130010A290AD27E
:100450004F45E5DC07EB870100EB4107303FDFD478
:1004600045F01005ECE7E90601D46FF000476C2871
:100470000AD04C2814D0682815D06A280DD07428CA
:100480001CD07A281AD01DE062690121019890479A
:100490006C2802D045F0040514E045F002050DE09B
:1004A00045F020050AE0626901210198904768281B
:1004B00002D045F0080505E045F4006562690121B8
:1004C00001989047C4E9015765283DD019DC5828A8
:1004D0007AD00CDC452837D004DC252826D04128EA
:1004E00031D131E046282FD047282CD12CE05B2891
:1004F00077D0612828D063287CD0642823D15AE0A3
:10050000D1E06F2848D008DC66281DD067281BD0B2
:10051000692821D06E2816D127E0702845D073288D
:1005200068D0752847D078280DD14DE0A1690B9887
:100530008847054625283FF469AFE1690B9888474D
:100540006D1C3FF46AAFB4E023466A466FF00100C9
:100550000B99AFF300809FE045F040006060A80772
:1005600023464FF0000236D43EE0E8077FF447AF61
:100570002068011D21600068290501D506701BE770
:10058000290701D5068017E7A90703D5F117C0E9A8
:10059000006111E706600FE745F040006060A807C2
:1005A00023464FF0080216D41EE040F60E0125EA5D
:1005B0000100606016E045F040006060A807234637
:1005C0004FF00A0207D40FE045F040006060A80732
:1005D00008D5234610226FF001000B99AFF300807D
:1005E0005AE007E0234610226FF001000B99AFF3A9
:1005F000008051E04FF000094F464B46632802D07F
:100600005B2807D041E02079C00601D40120A0601A
:1006100001273AE062690121019890475E2805D1DF
:100620004FF001096269494601989047216939B93B
:1006300000210A46534643F82120491C0829FADBC9
:10064000B0B3216969B9C11700EBD16253110AEB4C
:10065000830122F01F02821A01200B68904003439D
:100660000B6062690121019890475D28E8D1B9F1DA
:10067000000F09D00020514651F82020D24341F804
:100680002020401C0828F7DB02AB224600976FF0C1
:1006900001000B99FFF7C6FD00280CDA401C08D1B9
:1006A000BBF1000F05D04FF0FF300DB0BDE8F08F6B
:1006B000FFE74046F9E7E90701D108F101080644E0
:1006C0004FF0000B78E60000CCCCCC0C7F2801D991
:1006D000002208E0064A02EB5002C007127800D15F
:1006E000120902F00F0201209040084070470000FC
:1006F000C80E000870B58C1810F8015B15F00703E0
:1007000001D110F8013B2A1106D110F8012B03E0AA
:1007100010F8016B01F8016B5B1EF9D12B0705D4B2
:100720000023521E0DD401F8013BFAE710F8013BFB
:10073000CB1A921C03E013F8015B01F8015B521E17
:10074000F9D5A142D8D3002070BDFEE7704701B5AE
:10075000009800280BD04CF250310020401C8842F9
:10076000FCDB0098401E009000980028F5D108BDE1
:100770002DE9F041002201274FF0030C07FA02F5A2
:100780000B682B40AB422CD1066853000CFA03F4E3
:10079000A64306600E79D0F800809E4046EA08061F
:1007A00006600E79012E01D0022E12D18668A64372
:1007B00086604E79D0F808809E4046EA080686603A
:1007C0004668AE43466045688E799640B6B235437A
:1007D0004560C568A543C560CC799C40C3681C438F
:1007E000C460521C102AC9D3BDE8F08110B54B0774
:1007F000DB0E9A40C90800EB8100016A0F249C407F
:10080000A1430162016A1143016210BDFEE70000CD
:100810002DE9FC410121802000F02CF84FF4806488
:10082000009401208DF8040000218DF806108DF849
:1008300007008DF805100C4F69463846FFF798FF02
:100840006600009669463846FFF792FFA5000095BE
:1008500069463846FFF78CFF03481830048006804D
:100860000580BDE8FC810000001C0240FEE77047E7
:1008700070470000054A002903D011680143116048
:1008800070471168814311607047000030380240A2
:10089000054A002903D011680143116070471168AF
:1008A00081431160704700004438024070B5244B0A
:1008B000196801F00C01234C00291ED0224E042996
:1008C0001DD008291DD00460196801F0F001090944
:1008D0001E4A545C0168E14041601C6804F4E05425
:1008E000A40A145D21FA04F484601B6803F46043D5
:1008F0005B0BD25CD140C16070BD0460E4E7066070
:10090000E2E70F4A121F1168C1F38055116801F028
:100910003F0135B1B6FBF1F11468C4F388146143AB
:1009200005E0B4FBF1F11468C4F388146143126864
:10093000C2F30142521C5200B1FBF2F10160C3E765
:10094000083802400024F40040787D0100000020B7
:10095000704700001CB50021019100912E4A1068DB
:1009600040F4803010604FF4A043106800F4003071
:1009700000900198401C0190009810B9019898428D
:10098000F3D11068800302D50120009000E00091AF
:10099000009801283FD120484030016841F0805143
:1009A00001601E49086840F4404008601A48083059
:1009B00003680360036843F400430360036843F47F
:1009C000A0530360041F164B2360136843F0807329
:1009D000136013689B01FCD50A6842F480320A60F8
:1009E0004A68D203FCD50A6842F400320A604A68B9
:1009F0009203FCD50B4A40F205711160016821F0A9
:100A000003010160016841F0020101600168C1F366
:100A100081010229FAD11CBD00380240007000405B
:100A2000195A4007003C024010B504A000F0E0F85D
:100A3000BDE810400BA000F0DBB800000D0A20D587
:100A4000E2CAC7D2BBB8F6CAB9D3C36C6564D5B91C
:100A5000CABEC4A6CBB9B5E7C2EBB5C4CAB5D1E925
:100A6000200A0000CAE4C8EBD2BBB8F6D6BBB0FC83
:100A7000BAACD3A2CEC4D7D6B7FBB5C4D7D6B7FBD2
:100A8000B4AEA3ACBECDBBE1CAB9D3C36C6564B18F
:100A9000EDCFD6B3F6B6D4D3A6B5C4C4A6CBB9C2EF
:100AA000EB200A007047000010B50F48016841F0C4
:100AB000010101600C4A00210832116002680B4BF1
:100AC0001A400260031D0A4A1A60026822F480225A
:100AD000026005480C300160FFF73CFF05494FF00C
:100AE0000060086010BD000000380240FFFFF6FE05
:100AF0001030002408ED00E0002904D0818941F481
:100B0000005181817047818921F4005181817047B2
:100B10000246002012880A4200D0012070470000DF
:100B20007FB504460D46208A20F44051E8880843EA
:100B30002082A08941F20C618843A9882A89114347
:100B40006A8902431143A181A08A20F44071A889D7
:100B50000843A0826846FFF7A9FE1E48844202D0DF
:100B60001D48844201D1039800E00298A18909043C
:100B700008D500EBC00101EB001029684900B0FB6B
:100B8000F1F007E000EBC00101EB001029688900DB
:100B9000B0FBF1F06422B0FBF2F109010B096FF038
:100BA00018056B4300EB8300A3891D044FF032034B
:100BB00007D503EBC000B0FBF2F000F007000843DC
:100BC00006E003EB0010B0FBF2F000F00F0008436A
:100BD00020817FBD00100140001401408088C0F3D7
:100BE00008007047C1F3080181807047FEE70000EC
:100BF0000FB4054B10B503A9044A029800F017F88A
:100C000010BC5DF814FB0000250D0008B4010020A5
:100C100002E008C8121F08C1002AFAD170477047C5
:100C2000002001E001C1121F002AFBD170472DE90D
:100C3000F84F9946924688460546002706E0252843
:100C40000AD051464A4690476D1C7F1C28780028E0
:100C5000F5D13846BDE8F88F002315F8011F184676
:100C60002E2915D115F8011F04232A290DD06FF064
:100C70002F022978A1F13004092C09D800EB80005B
:100C800002EB400008446D1CF3E758F8040B6D1CA0
:100C90002A78002ADDD0632A07D0732A0FD01046A5
:100CA00051464A4690477F1C2AE018F8042B8DF8DD
:100CB000002000218DF801106E46012103E058F854
:100CC000046B4FF0FF315A074FF0000401D409E0E4
:100CD000641C84420BDA8C42FADB325D002AF7D1C5
:100CE00005E0641C8C42FCDB305D0028F9D1274410
:100CF00004E016F8010B51464A469047641EF8D2AC
:100D00006D1CA3E710B5064C20212046FFF700FF1D
:100D10000028F9D02046BDE81040FFF75FBF000073
:100D20000010014070B50446064DE1B22846FFF7B9
:100D300059FF80212846FFF7EBFE0028F9D0204616
:100D400070BD00000010014086B0FFF761FD00F0AB
:100D500071F8FFF769FEDFF8A8904FF400654FF4D3
:100D6000806AA9F102076E0001A926A0FFF74AFADE
:100D700000243FE001A8005DFFF736FA61381A2829
:100D800005D300F1610120A0FFF732FF31E000221E
:100D900027494FF4FA7B01EB001858F8220001288C
:100DA00002D0022813D108E0A9F800A03D803E80BF
:100DB0004FF47A70FFF7CBFC09E0A9F800A0A9F87E
:100DC0000050A9F8006040F6B830FFF7C0FCA7F863
:100DD00000A03D803E805846FFF7B9FC521C042A13
:100DE000DBDBA7F800A03D803E804FF4FA60FFF700
:100DF000AEFC641C01A8FFF7FDF9A042B4D9B9E725
:100E00001A1C024025730000C4E3CAE4C8EBB5C451
:100E1000A3BA20256320B2BBBACFB7A8A3ACCEDE5D
:100E2000B7A8D7AAD2EBB3C9C4A6CBB9C2EB0A0004
:100E30001000002030B587B001210846FFF71AFDE9
:100E400001211020FFF724FD02208DF81900002455
:100E50008DF81A4001218DF81B108DF81800000242
:100E60000590174D05A92846FFF782FC2915059125
:100E700005A92846FFF77CFC07220A212846FFF730
:100E8000B5FC072209212846FFF7B0FC4FF4E130FA
:100E90000190ADF80840ADF80A40ADF80C40ADF84F
:100EA00010400C20ADF80E00064C01A92046FFF7BB
:100EB00037FE01212046FFF71FFE07B030BD0000BE
:100EC0000000024000100140DDDDDDDDDCBBBBDDEC
:100ED000DDDDDDDDDDDDDDDD9888888888888888DA
:100EE00077777777778888888555555666666666FA
:100EF00066666666666888888333333222222222D9
:100F0000222222222228888D280F0008000000209B
:100F1000BC010000F40600087C0F0008BC010020A2
:100F200004040000200C0008412D010203040436D3
:100F30000607080901B202290C291469046910E99D
:100F4000082904394CF1091238690CA920E904A9CF
:100F5000406934A93C69A4E9846924E9C0A910A9BD
:100F600024E994E90CA908E9B069500916F0E930C0
:0C0F7000E964A9A0091688A914A9C841C9
:04000005080001AD41
:00000001FF
